{"abi":[{"type":"constructor","inputs":[],"stateMutability":"nonpayable"},{"type":"function","name":"addStrategy","inputs":[{"name":"a_packed","type":"uint256[]","internalType":"uint256[]"},{"name":"b","type":"uint256","internalType":"uint256"}],"outputs":[],"stateMutability":"nonpayable"},{"type":"function","name":"balances","inputs":[{"name":"","type":"address","internalType":"address"}],"outputs":[{"name":"","type":"uint256","internalType":"uint256"}],"stateMutability":"view"},{"type":"function","name":"executeStrategy","inputs":[{"name":"strategyId","type":"uint256","internalType":"uint256"},{"name":"s_packed","type":"uint256[]","internalType":"uint256[]"}],"outputs":[],"stateMutability":"nonpayable"},{"type":"function","name":"holdPosition","inputs":[],"outputs":[],"stateMutability":"nonpayable"},{"type":"function","name":"options","inputs":[{"name":"","type":"address","internalType":"address"}],"outputs":[{"name":"","type":"uint256","internalType":"uint256"}],"stateMutability":"view"},{"type":"function","name":"strategies","inputs":[{"name":"","type":"uint256","internalType":"uint256"}],"outputs":[{"name":"b","type":"uint256","internalType":"uint256"}],"stateMutability":"view"},{"type":"function","name":"strategyCount","inputs":[],"outputs":[{"name":"","type":"uint256","internalType":"uint256"}],"stateMutability":"view"},{"type":"function","name":"writeAggressiveCall","inputs":[],"outputs":[],"stateMutability":"nonpayable"},{"type":"function","name":"writeConservativeCall","inputs":[],"outputs":[],"stateMutability":"nonpayable"},{"type":"function","name":"writePutHedge","inputs":[],"outputs":[],"stateMutability":"nonpayable"},{"type":"event","name":"Debug","inputs":[{"name":"b","type":"uint256","indexed":false,"internalType":"uint256"},{"name":"inner","type":"uint256","indexed":false,"internalType":"uint256"},{"name":"m_approx","type":"uint256","indexed":false,"internalType":"uint256"}],"anonymous":false},{"type":"event","name":"OptionMinted","inputs":[{"name":"strategyName","type":"string","indexed":false,"internalType":"string"},{"name":"strikePrice","type":"uint256","indexed":false,"internalType":"uint256"}],"anonymous":false},{"type":"event","name":"StrategyExecuted","inputs":[{"name":"strategyId","type":"uint256","indexed":false,"internalType":"uint256"},{"name":"action","type":"string","indexed":false,"internalType":"string"}],"anonymous":false}],"bytecode":{"object":"0x6080604052348015600e575f5ffd5b5068056bc75e2d631000005f5f3073ffffffffffffffffffffffffffffffffffffffff1673ffffffffffffffffffffffffffffffffffffffff1681526020019081526020015f20819055506113c0806100665f395ff3fe608060405234801561000f575f5ffd5b506004361061009c575f3560e01c806389c7a1841161006457806389c7a18414610132578063d574ea3d1461013c578063d9f2150f1461016c578063e0e33d9814610188578063f065e703146101a45761009c565b806322068b44146100a057806327e235e3146100be57806351e5fddb146100ee57806382fae9c1146100f8578063851b6c3814610128575b5f5ffd5b6100a86101ae565b6040516100b591906109d8565b60405180910390f35b6100d860048036038101906100d39190610a5c565b6101b4565b6040516100e591906109d8565b60405180910390f35b6100f66101c8565b005b610112600480360381019061010d9190610a5c565b61023a565b60405161011f91906109d8565b60405180910390f35b61013061024f565b005b61013a6102c1565b005b61015660048036038101906101519190610ab1565b610333565b60405161016391906109d8565b60405180910390f35b61018660048036038101906101819190610c2c565b61034e565b005b6101a2600480360381019061019d9190610cdf565b6103fe565b005b6101ac610921565b005b60035481565b5f602052805f5260405f205f915090505481565b7f12f66f39abdc239dac69e0b394cf29e0ecdab51a9bcc16fe7081bc866f9ea304610bb86040516101f99190610dd8565b60405180910390a17f5d4d8e03c0ab9871e240e64a04775b5099aac229ce4929d239bf7e9e2f638fe15f6040516102309190610e87565b60405180910390a1565b6001602052805f5260405f205f915090505481565b7f12f66f39abdc239dac69e0b394cf29e0ecdab51a9bcc16fe7081bc866f9ea3046109606040516102809190610f36565b60405180910390a17f5d4d8e03c0ab9871e240e64a04775b5099aac229ce4929d239bf7e9e2f638fe15f6040516102b79190610fac565b60405180910390a1565b7f12f66f39abdc239dac69e0b394cf29e0ecdab51a9bcc16fe7081bc866f9ea304610a286040516102f2919061105b565b60405180910390a17f5d4d8e03c0ab9871e240e64a04775b5099aac229ce4929d239bf7e9e2f638fe15f60405161032991906110d1565b60405180910390a1565b6002602052805f5260405f205f915090508060010154905081565b6025825114610392576040517f08c379a000000000000000000000000000000000000000000000000000000000815260040161038990611147565b60405180910390fd5b5f60035f8154809291906103a590611192565b91905055905060405180604001604052808481526020018381525060025f8381526020019081526020015f205f820151815f0190805190602001906103eb92919061095a565b5060208201518160010155905050505050565b60258282905014610444576040517f08c379a000000000000000000000000000000000000000000000000000000000815260040161043b90611223565b60405180910390fd5b5f60025f8581526020019081526020015f206040518060400160405290815f82018054806020026020016040519081016040528092919081815260200182805480156104ad57602002820191905f5260205f20905b815481526020019060010190808311610499575b5050505050815260200160018201548152505090505f5f61100090505f836020015190505f5f9050602085510187610fff5f5b60258110156106dd5783518335838116848316028701965081600c1c915080600c1c9050838116848316028701965081600c1c915080600c1c9050838116848316028701965081600c1c915080600c1c9050838116848316028701965081600c1c915080600c1c9050838116848316028701965081600c1c915080600c1c9050838116848316028701965081600c1c915080600c1c9050838116848316028701965081600c1c915080600c1c9050838116848316028701965081600c1c915080600c1c9050838116848316028701965081600c1c915080600c1c9050838116848316028701965081600c1c915080600c1c9050838116848316028701965081600c1c915080600c1c9050838116848316028701965081600c1c915080600c1c9050838116848316028701965081600c1c915080600c1c9050838116848316028701965081600c1c915080600c1c9050838116848316028701965081600c1c915080600c1c9050838116848316028701965081600c1c915080600c1c9050838116848316028701965081600c1c915080600c1c9050838116848316028701965081600c1c915080600c1c9050838116848316028701965081600c1c915080600c1c9050838116848316028701965081600c1c915080600c1c9050838116848316028701965060208601955060208501945050506001810190506104e0565b508584069350838510600181146106f8578486039750610700565b848787010397505b505050507f426d9cc5b333c34d51d812de39be44790fc9815945379bd5bed56338e9dc165c82828660405161073793929190611241565b60405180910390a1600461100061074e91906112a3565b8410156107b5573073ffffffffffffffffffffffffffffffffffffffff166351e5fddb6040518163ffffffff1660e01b81526004015f604051808303815f87803b15801561079a575f5ffd5b505af11580156107ac573d5f5f3e3d5ffd5b50505050610917565b600461100060026107c691906112d3565b6107d091906112a3565b841015610837573073ffffffffffffffffffffffffffffffffffffffff166389c7a1846040518163ffffffff1660e01b81526004015f604051808303815f87803b15801561081c575f5ffd5b505af115801561082e573d5f5f3e3d5ffd5b50505050610916565b6004611000600361084891906112d3565b61085291906112a3565b8410156108b9573073ffffffffffffffffffffffffffffffffffffffff1663851b6c386040518163ffffffff1660e01b81526004015f604051808303815f87803b15801561089e575f5ffd5b505af11580156108b0573d5f5f3e3d5ffd5b50505050610915565b3073ffffffffffffffffffffffffffffffffffffffff1663f065e7036040518163ffffffff1660e01b81526004015f604051808303815f87803b1580156108fe575f5ffd5b505af1158015610910573d5f5f3e3d5ffd5b505050505b5b5b5050505050505050565b7f5d4d8e03c0ab9871e240e64a04775b5099aac229ce4929d239bf7e9e2f638fe15f604051610950919061135e565b60405180910390a1565b828054828255905f5260205f20908101928215610994579160200282015b82811115610993578251825591602001919060010190610978565b5b5090506109a191906109a5565b5090565b5b808211156109bc575f815f9055506001016109a6565b5090565b5f819050919050565b6109d2816109c0565b82525050565b5f6020820190506109eb5f8301846109c9565b92915050565b5f604051905090565b5f5ffd5b5f5ffd5b5f73ffffffffffffffffffffffffffffffffffffffff82169050919050565b5f610a2b82610a02565b9050919050565b610a3b81610a21565b8114610a45575f5ffd5b50565b5f81359050610a5681610a32565b92915050565b5f60208284031215610a7157610a706109fa565b5b5f610a7e84828501610a48565b91505092915050565b610a90816109c0565b8114610a9a575f5ffd5b50565b5f81359050610aab81610a87565b92915050565b5f60208284031215610ac657610ac56109fa565b5b5f610ad384828501610a9d565b91505092915050565b5f5ffd5b5f601f19601f8301169050919050565b7f4e487b71000000000000000000000000000000000000000000000000000000005f52604160045260245ffd5b610b2682610ae0565b810181811067ffffffffffffffff82111715610b4557610b44610af0565b5b80604052505050565b5f610b576109f1565b9050610b638282610b1d565b919050565b5f67ffffffffffffffff821115610b8257610b81610af0565b5b602082029050602081019050919050565b5f5ffd5b5f610ba9610ba484610b68565b610b4e565b90508083825260208201905060208402830185811115610bcc57610bcb610b93565b5b835b81811015610bf55780610be18882610a9d565b845260208401935050602081019050610bce565b5050509392505050565b5f82601f830112610c1357610c12610adc565b5b8135610c23848260208601610b97565b91505092915050565b5f5f60408385031215610c4257610c416109fa565b5b5f83013567ffffffffffffffff811115610c5f57610c5e6109fe565b5b610c6b85828601610bff565b9250506020610c7c85828601610a9d565b9150509250929050565b5f5ffd5b5f5f83601f840112610c9f57610c9e610adc565b5b8235905067ffffffffffffffff811115610cbc57610cbb610c86565b5b602083019150836020820283011115610cd857610cd7610b93565b5b9250929050565b5f5f5f60408486031215610cf657610cf56109fa565b5b5f610d0386828701610a9d565b935050602084013567ffffffffffffffff811115610d2457610d236109fe565b5b610d3086828701610c8a565b92509250509250925092565b5f82825260208201905092915050565b7f436f6e7365727661746976652043616c6c0000000000000000000000000000005f82015250565b5f610d80601183610d3c565b9150610d8b82610d4c565b602082019050919050565b5f819050919050565b5f819050919050565b5f610dc2610dbd610db884610d96565b610d9f565b6109c0565b9050919050565b610dd281610da8565b82525050565b5f6040820190508181035f830152610def81610d74565b9050610dfe6020830184610dc9565b92915050565b5f819050919050565b5f610e27610e22610e1d84610e04565b610d9f565b6109c0565b9050919050565b610e3781610e0d565b82525050565b7f436f6e73657276617469766500000000000000000000000000000000000000005f82015250565b5f610e71600c83610d3c565b9150610e7c82610e3d565b602082019050919050565b5f604082019050610e9a5f830184610e2e565b8181036020830152610eab81610e65565b905092915050565b7f50757420486564676500000000000000000000000000000000000000000000005f82015250565b5f610ee7600983610d3c565b9150610ef282610eb3565b602082019050919050565b5f819050919050565b5f610f20610f1b610f1684610efd565b610d9f565b6109c0565b9050919050565b610f3081610f06565b82525050565b5f6040820190508181035f830152610f4d81610edb565b9050610f5c6020830184610f27565b92915050565b7f48656467650000000000000000000000000000000000000000000000000000005f82015250565b5f610f96600583610d3c565b9150610fa182610f62565b602082019050919050565b5f604082019050610fbf5f830184610e2e565b8181036020830152610fd081610f8a565b905092915050565b7f416767726573736976652043616c6c00000000000000000000000000000000005f82015250565b5f61100c600f83610d3c565b915061101782610fd8565b602082019050919050565b5f819050919050565b5f61104561104061103b84611022565b610d9f565b6109c0565b9050919050565b6110558161102b565b82525050565b5f6040820190508181035f83015261107281611000565b9050611081602083018461104c565b92915050565b7f41676772657373697665000000000000000000000000000000000000000000005f82015250565b5f6110bb600a83610d3c565b91506110c682611087565b602082019050919050565b5f6040820190506110e45f830184610e2e565b81810360208301526110f5816110af565b905092915050565b7f496e76616c6964207061636b65642064696d656e73696f6e00000000000000005f82015250565b5f611131601883610d3c565b915061113c826110fd565b602082019050919050565b5f6020820190508181035f83015261115e81611125565b9050919050565b7f4e487b71000000000000000000000000000000000000000000000000000000005f52601160045260245ffd5b5f61119c826109c0565b91507fffffffffffffffffffffffffffffffffffffffffffffffffffffffffffffffff82036111ce576111cd611165565b5b600182019050919050565b7f496e76616c6964207769746e6573732064696d656e73696f6e000000000000005f82015250565b5f61120d601983610d3c565b9150611218826111d9565b602082019050919050565b5f6020820190508181035f83015261123a81611201565b9050919050565b5f6060820190506112545f8301866109c9565b61126160208301856109c9565b61126e60408301846109c9565b949350505050565b7f4e487b71000000000000000000000000000000000000000000000000000000005f52601260045260245ffd5b5f6112ad826109c0565b91506112b8836109c0565b9250826112c8576112c7611276565b5b828204905092915050565b5f6112dd826109c0565b91506112e8836109c0565b92508282026112f6816109c0565b9150828204841483151761130d5761130c611165565b5b5092915050565b7f486f6c64000000000000000000000000000000000000000000000000000000005f82015250565b5f611348600483610d3c565b915061135382611314565b602082019050919050565b5f6040820190506113715f830184610e2e565b81810360208301526113828161133c565b90509291505056fea2646970667358221220789f07ee9e5546cc46d11e88566edc59ee8c6678c4980dbf7e2024c529d86b2c64736f6c634300081f0033","linkReferences":{}},"methodIdentifiers":{"addStrategy(uint256[],uint256)":"d9f2150f","balances(address)":"27e235e3","executeStrategy(uint256,uint256[])":"e0e33d98","holdPosition()":"f065e703","options(address)":"82fae9c1","strategies(uint256)":"d574ea3d","strategyCount()":"22068b44","writeAggressiveCall()":"89c7a184","writeConservativeCall()":"51e5fddb","writePutHedge()":"851b6c38"},"id":22}