{"abi":[{"type":"function","name":"addEntry","inputs":[{"name":"a","type":"uint256[]","internalType":"uint256[]"},{"name":"b","type":"uint256","internalType":"uint256"}],"outputs":[],"stateMutability":"nonpayable"},{"type":"function","name":"entryCount","inputs":[],"outputs":[{"name":"","type":"uint256","internalType":"uint256"}],"stateMutability":"view"},{"type":"function","name":"executeBranchOptimized","inputs":[{"name":"entryId","type":"uint256","internalType":"uint256"},{"name":"s","type":"uint256[]","internalType":"uint256[]"}],"outputs":[],"stateMutability":"nonpayable"},{"type":"function","name":"jumpTable","inputs":[{"name":"","type":"uint256","internalType":"uint256"}],"outputs":[{"name":"b","type":"uint256","internalType":"uint256"}],"stateMutability":"view"},{"type":"function","name":"targetFunctionA","inputs":[],"outputs":[],"stateMutability":"nonpayable"},{"type":"function","name":"targetFunctionB","inputs":[],"outputs":[],"stateMutability":"nonpayable"},{"type":"event","name":"FunctionExecuted","inputs":[{"name":"name","type":"string","indexed":false,"internalType":"string"}],"anonymous":false},{"type":"event","name":"GasUsed","inputs":[{"name":"gasUsed","type":"uint256","indexed":false,"internalType":"uint256"}],"anonymous":false}],"bytecode":{"object":"0x6080604052348015600e575f5ffd5b506125b48061001c5f395ff3fe608060405234801561000f575f5ffd5b5060043610610060575f3560e01c80630cbb0f831461006457806362c1074014610082578063a6d764501461009e578063cf27ceae146100a8578063e66b92cf146100d8578063e89248ef146100e2575b5f5ffd5b61006c6100fe565b6040516100799190611eda565b60405180910390f35b61009c6004803603810190610097919061207e565b610104565b005b6100a66101b4565b005b6100c260048036038101906100bd91906120d8565b6101eb565b6040516100cf9190611eda565b60405180910390f35b6100e0610205565b005b6100fc60048036038101906100f7919061215c565b61023c565b005b60015481565b610180825114610149576040517f08c379a000000000000000000000000000000000000000000000000000000000815260040161014090612213565b60405180910390fd5b5f60015f81548092919061015c9061225e565b9190505590506040518060400160405280848152602001838152505f5f8381526020019081526020015f205f820151815f0190805190602001906101a1929190611e5c565b5060208201518160010155905050505050565b7f19d43ce223bf0349f8d5363a67b71d350d1dfce433e703fab6149f1dc873eef36040516101e1906122ef565b60405180910390a1565b5f602052805f5260405f205f915090508060010154905081565b7f19d43ce223bf0349f8d5363a67b71d350d1dfce433e703fab6149f1dc873eef360405161023290612357565b60405180910390a1565b5f5a90506101808383905014610287576040517f08c379a000000000000000000000000000000000000000000000000000000000815260040161027e906123bf565b60405180910390fd5b5f5f5f8681526020019081526020015f206040518060400160405290815f82018054806020026020016040519081016040528092919081815260200182805480156102ef57602002820191905f5260205f20905b8154815260200190600101908083116102db575b5050505050815260200160018201548152505090505f5f61100090505f836020015190506020845101602088015f81358351028101905060208201356020840151028101905060408201356040840151028101905060608201356060840151028101905060808201356080840151028101905060a082013560a0840151028101905060c082013560c0840151028101905060e082013560e08401510281019050610100820135610100840151028101905061012082013561012084015102810190506101408201356101408401510281019050610160820135610160840151028101905061018082013561018084015102810190506101a08201356101a084015102810190506101c08201356101c084015102810190506101e08201356101e08401510281019050610200820135610200840151028101905061022082013561022084015102810190506102408201356102408401510281019050610260820135610260840151028101905061028082013561028084015102810190506102a08201356102a084015102810190506102c08201356102c084015102810190506102e08201356102e08401510281019050610300820135610300840151028101905061032082013561032084015102810190506103408201356103408401510281019050610360820135610360840151028101905061038082013561038084015102810190506103a08201356103a084015102810190506103c08201356103c084015102810190506103e08201356103e08401510281019050610400820135610400840151028101905061042082013561042084015102810190506104408201356104408401510281019050610460820135610460840151028101905061048082013561048084015102810190506104a08201356104a084015102810190506104c08201356104c084015102810190506104e08201356104e08401510281019050610500820135610500840151028101905061052082013561052084015102810190506105408201356105408401510281019050610560820135610560840151028101905061058082013561058084015102810190506105a08201356105a084015102810190506105c08201356105c084015102810190506105e08201356105e08401510281019050610600820135610600840151028101905061062082013561062084015102810190506106408201356106408401510281019050610660820135610660840151028101905061068082013561068084015102810190506106a08201356106a084015102810190506106c08201356106c084015102810190506106e08201356106e08401510281019050610700820135610700840151028101905061072082013561072084015102810190506107408201356107408401510281019050610760820135610760840151028101905061078082013561078084015102810190506107a08201356107a084015102810190506107c08201356107c084015102810190506107e08201356107e08401510281019050610800820135610800840151028101905061082082013561082084015102810190506108408201356108408401510281019050610860820135610860840151028101905061088082013561088084015102810190506108a08201356108a084015102810190506108c08201356108c084015102810190506108e08201356108e08401510281019050610900820135610900840151028101905061092082013561092084015102810190506109408201356109408401510281019050610960820135610960840151028101905061098082013561098084015102810190506109a08201356109a084015102810190506109c08201356109c084015102810190506109e08201356109e08401510281019050610a00820135610a008401510281019050610a20820135610a208401510281019050610a40820135610a408401510281019050610a60820135610a608401510281019050610a80820135610a808401510281019050610aa0820135610aa08401510281019050610ac0820135610ac08401510281019050610ae0820135610ae08401510281019050610b00820135610b008401510281019050610b20820135610b208401510281019050610b40820135610b408401510281019050610b60820135610b608401510281019050610b80820135610b808401510281019050610ba0820135610ba08401510281019050610bc0820135610bc08401510281019050610be0820135610be08401510281019050610c00820135610c008401510281019050610c20820135610c208401510281019050610c40820135610c408401510281019050610c60820135610c608401510281019050610c80820135610c808401510281019050610ca0820135610ca08401510281019050610cc0820135610cc08401510281019050610ce0820135610ce08401510281019050610d00820135610d008401510281019050610d20820135610d208401510281019050610d40820135610d408401510281019050610d60820135610d608401510281019050610d80820135610d808401510281019050610da0820135610da08401510281019050610dc0820135610dc08401510281019050610de0820135610de08401510281019050610e00820135610e008401510281019050610e20820135610e208401510281019050610e40820135610e408401510281019050610e60820135610e608401510281019050610e80820135610e808401510281019050610ea0820135610ea08401510281019050610ec0820135610ec08401510281019050610ee0820135610ee08401510281019050610f00820135610f008401510281019050610f20820135610f208401510281019050610f40820135610f408401510281019050610f60820135610f608401510281019050610f80820135610f808401510281019050610fa0820135610fa08401510281019050610fc0820135610fc08401510281019050610fe0820135610fe08401510281019050611000820135611000840151028101905061102082013561102084015102810190506110408201356110408401510281019050611060820135611060840151028101905061108082013561108084015102810190506110a08201356110a084015102810190506110c08201356110c084015102810190506110e08201356110e08401510281019050611100820135611100840151028101905061112082013561112084015102810190506111408201356111408401510281019050611160820135611160840151028101905061118082013561118084015102810190506111a08201356111a084015102810190506111c08201356111c084015102810190506111e08201356111e08401510281019050611200820135611200840151028101905061122082013561122084015102810190506112408201356112408401510281019050611260820135611260840151028101905061128082013561128084015102810190506112a08201356112a084015102810190506112c08201356112c084015102810190506112e08201356112e08401510281019050611300820135611300840151028101905061132082013561132084015102810190506113408201356113408401510281019050611360820135611360840151028101905061138082013561138084015102810190506113a08201356113a084015102810190506113c08201356113c084015102810190506113e08201356113e08401510281019050611400820135611400840151028101905061142082013561142084015102810190506114408201356114408401510281019050611460820135611460840151028101905061148082013561148084015102810190506114a08201356114a084015102810190506114c08201356114c084015102810190506114e08201356114e08401510281019050611500820135611500840151028101905061152082013561152084015102810190506115408201356115408401510281019050611560820135611560840151028101905061158082013561158084015102810190506115a08201356115a084015102810190506115c08201356115c084015102810190506115e08201356115e08401510281019050611600820135611600840151028101905061162082013561162084015102810190506116408201356116408401510281019050611660820135611660840151028101905061168082013561168084015102810190506116a08201356116a084015102810190506116c08201356116c084015102810190506116e08201356116e08401510281019050611700820135611700840151028101905061172082013561172084015102810190506117408201356117408401510281019050611760820135611760840151028101905061178082013561178084015102810190506117a08201356117a084015102810190506117c08201356117c084015102810190506117e08201356117e08401510281019050611800820135611800840151028101905061182082013561182084015102810190506118408201356118408401510281019050611860820135611860840151028101905061188082013561188084015102810190506118a08201356118a084015102810190506118c08201356118c084015102810190506118e08201356118e08401510281019050611900820135611900840151028101905061192082013561192084015102810190506119408201356119408401510281019050611960820135611960840151028101905061198082013561198084015102810190506119a08201356119a084015102810190506119c08201356119c084015102810190506119e08201356119e08401510281019050611a00820135611a008401510281019050611a20820135611a208401510281019050611a40820135611a408401510281019050611a60820135611a608401510281019050611a80820135611a808401510281019050611aa0820135611aa08401510281019050611ac0820135611ac08401510281019050611ae0820135611ae08401510281019050611b00820135611b008401510281019050611b20820135611b208401510281019050611b40820135611b408401510281019050611b60820135611b608401510281019050611b80820135611b808401510281019050611ba0820135611ba08401510281019050611bc0820135611bc08401510281019050611be0820135611be08401510281019050611c00820135611c008401510281019050611c20820135611c208401510281019050611c40820135611c408401510281019050611c60820135611c608401510281019050611c80820135611c808401510281019050611ca0820135611ca08401510281019050611cc0820135611cc08401510281019050611ce0820135611ce08401510281019050611d00820135611d008401510281019050611d20820135611d208401510281019050611d40820135611d408401510281019050611d60820135611d608401510281019050611d80820135611d808401510281019050611da0820135611da08401510281019050611dc0820135611dc08401510281019050611de0820135611de08401510281019050611e00820135611e008401510281019050611e20820135611e208401510281019050611e40820135611e408401510281019050611e60820135611e608401510281019050611e80820135611e808401510281019050611ea0820135611ea08401510281019050611ec0820135611ec08401510281019050611ee0820135611ee08401510281019050611f00820135611f008401510281019050611f20820135611f208401510281019050611f40820135611f408401510281019050611f60820135611f608401510281019050611f80820135611f808401510281019050611fa0820135611fa08401510281019050611fc0820135611fc08401510281019050611fe0820135611fe08401510281019050612000820135612000840151028101905061202082013561202084015102810190506120408201356120408401510281019050612060820135612060840151028101905061208082013561208084015102810190506120a08201356120a084015102810190506120c08201356120c084015102810190506120e08201356120e08401510281019050612100820135612100840151028101905061212082013561212084015102810190506121408201356121408401510281019050612160820135612160840151028101905061218082013561218084015102810190506121a08201356121a084015102810190506121c08201356121c084015102810190506121e08201356121e08401510281019050612200820135612200840151028101905061222082013561222084015102810190506122408201356122408401510281019050612260820135612260840151028101905061228082013561228084015102810190506122a08201356122a084015102810190506122c08201356122c084015102810190506122e08201356122e08401510281019050612300820135612300840151028101905061232082013561232084015102810190506123408201356123408401510281019050612360820135612360840151028101905061238082013561238084015102810190506123a08201356123a084015102810190506123c08201356123c084015102810190506123e08201356123e08401510281019050612400820135612400840151028101905061242082013561242084015102810190506124408201356124408401510281019050612460820135612460840151028101905061248082013561248084015102810190506124a08201356124a084015102810190506124c08201356124c084015102810190506124e08201356124e08401510281019050612500820135612500840151028101905061252082013561252084015102810190506125408201356125408401510281019050612560820135612560840151028101905061258082013561258084015102810190506125a08201356125a084015102810190506125c08201356125c084015102810190506125e08201356125e08401510281019050612600820135612600840151028101905061262082013561262084015102810190506126408201356126408401510281019050612660820135612660840151028101905061268082013561268084015102810190506126a08201356126a084015102810190506126c08201356126c084015102810190506126e08201356126e08401510281019050612700820135612700840151028101905061272082013561272084015102810190506127408201356127408401510281019050612760820135612760840151028101905061278082013561278084015102810190506127a08201356127a084015102810190506127c08201356127c084015102810190506127e08201356127e08401510281019050612800820135612800840151028101905061282082013561282084015102810190506128408201356128408401510281019050612860820135612860840151028101905061288082013561288084015102810190506128a08201356128a084015102810190506128c08201356128c084015102810190506128e08201356128e08401510281019050612900820135612900840151028101905061292082013561292084015102810190506129408201356129408401510281019050612960820135612960840151028101905061298082013561298084015102810190506129a08201356129a084015102810190506129c08201356129c084015102810190506129e08201356129e08401510281019050612a00820135612a008401510281019050612a20820135612a208401510281019050612a40820135612a408401510281019050612a60820135612a608401510281019050612a80820135612a808401510281019050612aa0820135612aa08401510281019050612ac0820135612ac08401510281019050612ae0820135612ae08401510281019050612b00820135612b008401510281019050612b20820135612b208401510281019050612b40820135612b408401510281019050612b60820135612b608401510281019050612b80820135612b808401510281019050612ba0820135612ba08401510281019050612bc0820135612bc08401510281019050612be0820135612be08401510281019050612c00820135612c008401510281019050612c20820135612c208401510281019050612c40820135612c408401510281019050612c60820135612c608401510281019050612c80820135612c808401510281019050612ca0820135612ca08401510281019050612cc0820135612cc08401510281019050612ce0820135612ce08401510281019050612d00820135612d008401510281019050612d20820135612d208401510281019050612d40820135612d408401510281019050612d60820135612d608401510281019050612d80820135612d808401510281019050612da0820135612da08401510281019050612dc0820135612dc08401510281019050612de0820135612de08401510281019050612e00820135612e008401510281019050612e20820135612e208401510281019050612e40820135612e408401510281019050612e60820135612e608401510281019050612e80820135612e808401510281019050612ea0820135612ea08401510281019050612ec0820135612ec08401510281019050612ee0820135612ee08401510281019050612f00820135612f008401510281019050612f20820135612f208401510281019050612f40820135612f408401510281019050612f60820135612f608401510281019050612f80820135612f808401510281019050612fa0820135612fa08401510281019050612fc0820135612fc08401510281019050612fe0820135612fe08401510281019050848106905080841060018114611ca1578185039650611ca9565b818686010396505b505050505f6004611000611cbd919061240a565b84118015611ce4575060046110006003611cd7919061243a565b611ce1919061240a565b84105b15611cf85763a6d7645060e01b9050611d03565b63e66b92cf60e01b90505b5f3073ffffffffffffffffffffffffffffffffffffffff1682604051602401604051602081830303815290604052907bffffffffffffffffffffffffffffffffffffffffffffffffffffffff19166020820180517bffffffffffffffffffffffffffffffffffffffffffffffffffffffff8381831617835250505050604051611d8c91906124cd565b5f604051808303815f865af19150503d805f8114611dc5576040519150601f19603f3d011682016040523d82523d5f602084013e611dca565b606091505b5050905080611e0e576040517f08c379a0000000000000000000000000000000000000000000000000000000008152600401611e059061252d565b60405180910390fd5b7f275c82ca4f491f0c9b7ffa4f6e3e85613c4a0d2c4f67b64995dc68806f0586e55a88611e3b919061254b565b604051611e489190611eda565b60405180910390a150505050505050505050565b828054828255905f5260205f20908101928215611e96579160200282015b82811115611e95578251825591602001919060010190611e7a565b5b509050611ea39190611ea7565b5090565b5b80821115611ebe575f815f905550600101611ea8565b5090565b5f819050919050565b611ed481611ec2565b82525050565b5f602082019050611eed5f830184611ecb565b92915050565b5f604051905090565b5f5ffd5b5f5ffd5b5f5ffd5b5f601f19601f8301169050919050565b7f4e487b71000000000000000000000000000000000000000000000000000000005f52604160045260245ffd5b611f4e82611f08565b810181811067ffffffffffffffff82111715611f6d57611f6c611f18565b5b80604052505050565b5f611f7f611ef3565b9050611f8b8282611f45565b919050565b5f67ffffffffffffffff821115611faa57611fa9611f18565b5b602082029050602081019050919050565b5f5ffd5b611fc881611ec2565b8114611fd2575f5ffd5b50565b5f81359050611fe381611fbf565b92915050565b5f611ffb611ff684611f90565b611f76565b9050808382526020820190506020840283018581111561201e5761201d611fbb565b5b835b8181101561204757806120338882611fd5565b845260208401935050602081019050612020565b5050509392505050565b5f82601f83011261206557612064611f04565b5b8135612075848260208601611fe9565b91505092915050565b5f5f6040838503121561209457612093611efc565b5b5f83013567ffffffffffffffff8111156120b1576120b0611f00565b5b6120bd85828601612051565b92505060206120ce85828601611fd5565b9150509250929050565b5f602082840312156120ed576120ec611efc565b5b5f6120fa84828501611fd5565b91505092915050565b5f5ffd5b5f5f83601f84011261211c5761211b611f04565b5b8235905067ffffffffffffffff81111561213957612138612103565b5b60208301915083602082028301111561215557612154611fbb565b5b9250929050565b5f5f5f6040848603121561217357612172611efc565b5b5f61218086828701611fd5565b935050602084013567ffffffffffffffff8111156121a1576121a0611f00565b5b6121ad86828701612107565b92509250509250925092565b5f82825260208201905092915050565b7f496e76616c69642064696d656e73696f6e0000000000000000000000000000005f82015250565b5f6121fd6011836121b9565b9150612208826121c9565b602082019050919050565b5f6020820190508181035f83015261222a816121f1565b9050919050565b7f4e487b71000000000000000000000000000000000000000000000000000000005f52601160045260245ffd5b5f61226882611ec2565b91507fffffffffffffffffffffffffffffffffffffffffffffffffffffffffffffffff820361229a57612299612231565b5b600182019050919050565b7f46756e6374696f6e2042000000000000000000000000000000000000000000005f82015250565b5f6122d9600a836121b9565b91506122e4826122a5565b602082019050919050565b5f6020820190508181035f830152612306816122cd565b9050919050565b7f46756e6374696f6e2041000000000000000000000000000000000000000000005f82015250565b5f612341600a836121b9565b915061234c8261230d565b602082019050919050565b5f6020820190508181035f83015261236e81612335565b9050919050565b7f496e76616c6964207769746e6573732064696d656e73696f6e000000000000005f82015250565b5f6123a96019836121b9565b91506123b482612375565b602082019050919050565b5f6020820190508181035f8301526123d68161239d565b9050919050565b7f4e487b71000000000000000000000000000000000000000000000000000000005f52601260045260245ffd5b5f61241482611ec2565b915061241f83611ec2565b92508261242f5761242e6123dd565b5b828204905092915050565b5f61244482611ec2565b915061244f83611ec2565b925082820261245d81611ec2565b9150828204841483151761247457612473612231565b5b5092915050565b5f81519050919050565b5f81905092915050565b8281835e5f83830152505050565b5f6124a78261247b565b6124b18185612485565b93506124c181856020860161248f565b80840191505092915050565b5f6124d8828461249d565b915081905092915050565b7f4469737061746368206661696c656400000000000000000000000000000000005f82015250565b5f612517600f836121b9565b9150612522826124e3565b602082019050919050565b5f6020820190508181035f8301526125448161250b565b9050919050565b5f61255582611ec2565b915061256083611ec2565b925082820390508181111561257857612577612231565b5b9291505056fea2646970667358221220c6aed6ab50744cdfa74d32a32b8ed3598b1221047f560243c701257f8806925464736f6c634300081f0033","linkReferences":{}},"methodIdentifiers":{"addEntry(uint256[],uint256)":"62c10740","entryCount()":"0cbb0f83","executeBranchOptimized(uint256,uint256[])":"e89248ef","jumpTable(uint256)":"cf27ceae","targetFunctionA()":"e66b92cf","targetFunctionB()":"a6d76450"},"id":19}