{"abi":[{"type":"constructor","inputs":[{"name":"_a","type":"uint256[]","internalType":"uint256[]"},{"name":"_b","type":"uint256","internalType":"uint256"}],"stateMutability":"payable"},{"type":"function","name":"baseTolerance","inputs":[],"outputs":[{"name":"","type":"uint256","internalType":"uint256"}],"stateMutability":"view"},{"type":"function","name":"contribute","inputs":[],"outputs":[],"stateMutability":"payable"},{"type":"function","name":"getTolerance","inputs":[],"outputs":[{"name":"","type":"uint256","internalType":"uint256"}],"stateMutability":"view"},{"type":"function","name":"puzzle","inputs":[],"outputs":[{"name":"b","type":"uint256","internalType":"uint256"}],"stateMutability":"view"},{"type":"function","name":"solve","inputs":[{"name":"s","type":"uint256[]","internalType":"uint256[]"}],"outputs":[],"stateMutability":"nonpayable"},{"type":"function","name":"toleranceMultiplier","inputs":[],"outputs":[{"name":"","type":"uint256","internalType":"uint256"}],"stateMutability":"view"},{"type":"event","name":"PotIncreased","inputs":[{"name":"contributor","type":"address","indexed":false,"internalType":"address"},{"name":"amount","type":"uint256","indexed":false,"internalType":"uint256"},{"name":"newTolerance","type":"uint256","indexed":false,"internalType":"uint256"}],"anonymous":false},{"type":"event","name":"Winner","inputs":[{"name":"winner","type":"address","indexed":false,"internalType":"address"},{"name":"prize","type":"uint256","indexed":false,"internalType":"uint256"},{"name":"error","type":"uint256","indexed":false,"internalType":"uint256"}],"anonymous":false}],"bytecode":{"object":"0x6080604052600a6002556001600355604051610dea380380610dea833981810160405281019061002f91906102b3565b610300825114610074576040517f08c379a000000000000000000000000000000000000000000000000000000000815260040161006b90610367565b60405180910390fd5b6040518060400160405280838152602001828152505f5f820151815f0190805190602001906100a49291906100b9565b50602082015181600101559050505050610385565b828054828255905f5260205f209081019282156100f3579160200282015b828111156100f25782518255916020019190600101906100d7565b5b5090506101009190610104565b5090565b5b8082111561011b575f815f905550600101610105565b5090565b5f604051905090565b5f5ffd5b5f5ffd5b5f5ffd5b5f601f19601f8301169050919050565b7f4e487b71000000000000000000000000000000000000000000000000000000005f52604160045260245ffd5b61017a82610134565b810181811067ffffffffffffffff8211171561019957610198610144565b5b80604052505050565b5f6101ab61011f565b90506101b78282610171565b919050565b5f67ffffffffffffffff8211156101d6576101d5610144565b5b602082029050602081019050919050565b5f5ffd5b5f819050919050565b6101fd816101eb565b8114610207575f5ffd5b50565b5f81519050610218816101f4565b92915050565b5f61023061022b846101bc565b6101a2565b90508083825260208201905060208402830185811115610253576102526101e7565b5b835b8181101561027c5780610268888261020a565b845260208401935050602081019050610255565b5050509392505050565b5f82601f83011261029a57610299610130565b5b81516102aa84826020860161021e565b91505092915050565b5f5f604083850312156102c9576102c8610128565b5b5f83015167ffffffffffffffff8111156102e6576102e561012c565b5b6102f285828601610286565b92505060206103038582860161020a565b9150509250929050565b5f82825260208201905092915050565b7f496e76616c69642064696d656e73696f6e0000000000000000000000000000005f82015250565b5f61035160118361030d565b915061035c8261031d565b602082019050919050565b5f6020820190508181035f83015261037e81610345565b9050919050565b610a58806103925f395ff3fe608060405260043610610053575f3560e01c806270a6c31461005757806336e16a0614610081578063399fac07146100a9578063a0f54464146100d3578063d5d389e4146100fd578063d7bb99ba14610127575b5f5ffd5b348015610062575f5ffd5b5061006b610131565b6040516100789190610668565b60405180910390f35b34801561008c575f5ffd5b506100a760048036038101906100a291906106ea565b61016a565b005b3480156100b4575f5ffd5b506100bd6105b3565b6040516100ca9190610668565b60405180910390f35b3480156100de575f5ffd5b506100e76105be565b6040516100f49190610668565b60405180910390f35b348015610108575f5ffd5b506101116105c4565b60405161011e9190610668565b60405180910390f35b61012f6105ca565b005b5f5f670de0b6b3a76400006003544761014a9190610762565b61015491906107d0565b9050806002546101649190610800565b91505090565b61030082829050146101b1576040517f08c379a00000000000000000000000000000000000000000000000000000000081526004016101a89061088d565b60405180910390fd5b5f61100090505f5f6001015490505f5f90505f5f5f0180548060200260200160405190810160405280929190818152602001828054801561020f57602002820191905f5260205f20905b8154815260200190600101908083116101fb575b5050505050905060208101865f5b61030081101561044a5781358351028501945060208201356020840151028501945060408201356040840151028501945060608201356060840151028501945060808201356080840151028501945060a082013560a0840151028501945060c082013560c0840151028501945060e082013560e08401510285019450610100820135610100840151028501945061012082013561012084015102850194506101408201356101408401510285019450610160820135610160840151028501945061018082013561018084015102850194506101a08201356101a084015102850194506101c08201356101c084015102850194506101e08201356101e08401510285019450610200820135610200840151028501945061022082013561022084015102850194506102408201356102408401510285019450610260820135610260840151028501945061028082013561028084015102850194506102a08201356102a084015102850194506102c08201356102c084015102850194506102e08201356102e08401510285019450610300820135610300840151028501945061032082013561032084015102850194506103408201356103408401510285019450610360820135610360840151028501945061038082013561038084015102850194506103a08201356103a084015102850194506103c08201356103c084015102850194506103e08201356103e08401510285019450610400830192506104008201915060208101905061021d565b86850694505050505f8383111561049b575f848461046891906108ab565b905060028661047791906107d0565b81111561049157808661048a91906108ab565b9150610495565b8091505b506104d7565b5f83856104a891906108ab565b90506002866104b791906107d0565b8111156104d15780866104ca91906108ab565b91506104d5565b8091505b505b5f6104e0610131565b905080821115610525576040517f08c379a000000000000000000000000000000000000000000000000000000000815260040161051c90610928565b60405180910390fd5b5f4790503373ffffffffffffffffffffffffffffffffffffffff166108fc8290811502906040515f60405180830381858888f1935050505015801561056c573d5f5f3e3d5ffd5b507f83180aa4ac63459a0857ee4be800e29aa03c2426bdb949e15826b88ef0c668a23382856040516105a093929190610985565b60405180910390a1505050505050505050565b5f8060010154905081565b60025481565b60035481565b5f341161060c576040517f08c379a000000000000000000000000000000000000000000000000000000000815260040161060390610a04565b60405180910390fd5b7f4bca4494717fabffe5dd9a669809e64a51d35e6b095f6a9c28ed970c26ff9da53334610637610131565b60405161064693929190610985565b60405180910390a1565b5f819050919050565b61066281610650565b82525050565b5f60208201905061067b5f830184610659565b92915050565b5f5ffd5b5f5ffd5b5f5ffd5b5f5ffd5b5f5ffd5b5f5f83601f8401126106aa576106a9610689565b5b8235905067ffffffffffffffff8111156106c7576106c661068d565b5b6020830191508360208202830111156106e3576106e2610691565b5b9250929050565b5f5f60208385031215610700576106ff610681565b5b5f83013567ffffffffffffffff81111561071d5761071c610685565b5b61072985828601610695565b92509250509250929050565b7f4e487b71000000000000000000000000000000000000000000000000000000005f52601160045260245ffd5b5f61076c82610650565b915061077783610650565b925082820261078581610650565b9150828204841483151761079c5761079b610735565b5b5092915050565b7f4e487b71000000000000000000000000000000000000000000000000000000005f52601260045260245ffd5b5f6107da82610650565b91506107e583610650565b9250826107f5576107f46107a3565b5b828204905092915050565b5f61080a82610650565b915061081583610650565b925082820190508082111561082d5761082c610735565b5b92915050565b5f82825260208201905092915050565b7f496e76616c69642064696d656e73696f6e0000000000000000000000000000005f82015250565b5f610877601183610833565b915061088282610843565b602082019050919050565b5f6020820190508181035f8301526108a48161086b565b9050919050565b5f6108b582610650565b91506108c083610650565b92508282039050818111156108d8576108d7610735565b5b92915050565b7f536f6c7574696f6e206e6f7420636c6f736520656e6f756768000000000000005f82015250565b5f610912601983610833565b915061091d826108de565b602082019050919050565b5f6020820190508181035f83015261093f81610906565b9050919050565b5f73ffffffffffffffffffffffffffffffffffffffff82169050919050565b5f61096f82610946565b9050919050565b61097f81610965565b82525050565b5f6060820190506109985f830186610976565b6109a56020830185610659565b6109b26040830184610659565b949350505050565b7f4d75737420636f6e7472696275746520455448000000000000000000000000005f82015250565b5f6109ee601383610833565b91506109f9826109ba565b602082019050919050565b5f6020820190508181035f830152610a1b816109e2565b905091905056fea2646970667358221220ab8d469c86667bc0dc4e7e31973a01803b1b7ed67310f707c58a456a5204134c64736f6c634300081f0033","linkReferences":{}},"methodIdentifiers":{"baseTolerance()":"a0f54464","contribute()":"d7bb99ba","getTolerance()":"0070a6c3","puzzle()":"399fac07","solve(uint256[])":"36e16a06","toleranceMultiplier()":"d5d389e4"},"id":19}