{"abi":[{"type":"constructor","inputs":[],"stateMutability":"nonpayable"},{"type":"function","name":"addStrategy","inputs":[{"name":"a_packed","type":"uint256[37]","internalType":"uint256[37]"},{"name":"b","type":"uint16","internalType":"uint16"}],"outputs":[],"stateMutability":"nonpayable"},{"type":"function","name":"balances","inputs":[{"name":"","type":"address","internalType":"address"}],"outputs":[{"name":"","type":"uint256","internalType":"uint256"}],"stateMutability":"view"},{"type":"function","name":"executeStrategy","inputs":[{"name":"strategyId","type":"uint256","internalType":"uint256"},{"name":"s_packed","type":"uint256[37]","internalType":"uint256[37]"}],"outputs":[],"stateMutability":"nonpayable"},{"type":"function","name":"options","inputs":[{"name":"","type":"address","internalType":"address"}],"outputs":[{"name":"","type":"uint256","internalType":"uint256"}],"stateMutability":"view"},{"type":"function","name":"owner","inputs":[],"outputs":[{"name":"","type":"address","internalType":"address"}],"stateMutability":"view"},{"type":"function","name":"strategyCount","inputs":[],"outputs":[{"name":"","type":"uint256","internalType":"uint256"}],"stateMutability":"view"},{"type":"event","name":"OptionMinted","inputs":[{"name":"strategyName","type":"string","indexed":false,"internalType":"string"},{"name":"strikePrice","type":"uint256","indexed":false,"internalType":"uint256"}],"anonymous":false},{"type":"event","name":"StrategyExecuted","inputs":[{"name":"strategyId","type":"uint256","indexed":false,"internalType":"uint256"},{"name":"action","type":"string","indexed":false,"internalType":"string"}],"anonymous":false},{"type":"error","name":"BExceedsModulus","inputs":[]},{"type":"error","name":"InvalidPackedDimension","inputs":[]},{"type":"error","name":"InvalidStrategyId","inputs":[]},{"type":"error","name":"Unauthorized","inputs":[]}],"bytecode":{"object":"0x60a0604052348015600e575f5ffd5b503373ffffffffffffffffffffffffffffffffffffffff1660808173ffffffffffffffffffffffffffffffffffffffff168152505068056bc75e2d631000005f5f3073ffffffffffffffffffffffffffffffffffffffff1673ffffffffffffffffffffffffffffffffffffffff1681526020019081526020015f2081905550608051610f306100ac5f395f818161015401526102cc0152610f305ff3fe608060405234801561000f575f5ffd5b5060043610610060575f3560e01c806322068b441461006457806327e235e3146100825780636f2770d1146100b257806382fae9c1146100ce5780638da5cb5b146100fe578063f3614cab1461011c575b5f5ffd5b61006c610138565b60405161007991906107b5565b60405180910390f35b61009c6004803603810190610097919061082c565b61013e565b6040516100a991906107b5565b60405180910390f35b6100cc60048036038101906100c791906108b3565b610152565b005b6100e860048036038101906100e3919061082c565b6102b5565b6040516100f591906107b5565b60405180910390f35b6101066102ca565b6040516101139190610902565b60405180910390f35b61013660048036038101906101319190610945565b6102ee565b005b60035481565b5f602052805f5260405f205f915090505481565b7f000000000000000000000000000000000000000000000000000000000000000073ffffffffffffffffffffffffffffffffffffffff163373ffffffffffffffffffffffffffffffffffffffff16146101d7576040517f82b4290000000000000000000000000000000000000000000000000000000000815260040160405180910390fd5b6110008161ffff1610610216576040517fa65fb91900000000000000000000000000000000000000000000000000000000815260040160405180910390fd5b5f60035f815480929190610229906109b1565b9190505590505f60025f8381526020019081526020015f2090505f5f90505b602581101561029057848160258110610264576102636109f8565b5b6020020135825f01826025811061027e5761027d6109f8565b5b01819055508080600101915050610248565b5082816025015f6101000a81548161ffff021916908361ffff16021790555050505050565b6001602052805f5260405f205f915090505481565b7f000000000000000000000000000000000000000000000000000000000000000081565b6003548210610329576040517f9931e72900000000000000000000000000000000000000000000000000000000815260040160405180910390fd5b5f60025f8481526020019081526020015f2090505f5f826025015f9054906101000a900461ffff1661ffff1690505f5f905084610fff875f52600260205260405f205f5b602581101561056657808201548435848116858316028701965081600c1c915080600c1c9050848116858316028701965081600c1c915080600c1c9050848116858316028701965081600c1c915080600c1c9050848116858316028701965081600c1c915080600c1c9050848116858316028701965081600c1c915080600c1c9050848116858316028701965081600c1c915080600c1c9050848116858316028701965081600c1c915080600c1c9050848116858316028701965081600c1c915080600c1c9050848116858316028701965081600c1c915080600c1c9050848116858316028701965081600c1c915080600c1c9050848116858316028701965081600c1c915080600c1c9050848116858316028701965081600c1c915080600c1c9050848116858316028701965081600c1c915080600c1c9050848116858316028701965081600c1c915080600c1c9050848116858316028701965081600c1c915080600c1c9050848116858316028701965081600c1c915080600c1c9050848116858316028701965081600c1c915080600c1c9050848116858316028701965081600c1c915080600c1c9050848116858316028701965081600c1c915080600c1c9050848116858316028701965081600c1c915080600c1c90508481168583160287019650602086019550505060018101905061036d565b50610fff84169350610fff84860316955050505060046110006105899190610a52565b83101561059d5761059861060e565b610606565b600461100060026105ae9190610a82565b6105b89190610a52565b8310156105cc576105c7610680565b610605565b600461100060036105dd9190610a82565b6105e79190610a52565b8310156105fb576105f66106f2565b610604565b610603610764565b5b5b5b505050505050565b7f12f66f39abdc239dac69e0b394cf29e0ecdab51a9bcc16fe7081bc866f9ea304610bb860405161063f9190610b5f565b60405180910390a17f5d4d8e03c0ab9871e240e64a04775b5099aac229ce4929d239bf7e9e2f638fe15f6040516106769190610c0e565b60405180910390a1565b7f12f66f39abdc239dac69e0b394cf29e0ecdab51a9bcc16fe7081bc866f9ea304610a286040516106b19190610cbd565b60405180910390a17f5d4d8e03c0ab9871e240e64a04775b5099aac229ce4929d239bf7e9e2f638fe15f6040516106e89190610d33565b60405180910390a1565b7f12f66f39abdc239dac69e0b394cf29e0ecdab51a9bcc16fe7081bc866f9ea3046109606040516107239190610de2565b60405180910390a17f5d4d8e03c0ab9871e240e64a04775b5099aac229ce4929d239bf7e9e2f638fe15f60405161075a9190610e58565b60405180910390a1565b7f5d4d8e03c0ab9871e240e64a04775b5099aac229ce4929d239bf7e9e2f638fe15f6040516107939190610ece565b60405180910390a1565b5f819050919050565b6107af8161079d565b82525050565b5f6020820190506107c85f8301846107a6565b92915050565b5f5ffd5b5f73ffffffffffffffffffffffffffffffffffffffff82169050919050565b5f6107fb826107d2565b9050919050565b61080b816107f1565b8114610815575f5ffd5b50565b5f8135905061082681610802565b92915050565b5f60208284031215610841576108406107ce565b5b5f61084e84828501610818565b91505092915050565b5f5ffd5b5f8190508260206025028201111561087657610875610857565b5b92915050565b5f61ffff82169050919050565b6108928161087c565b811461089c575f5ffd5b50565b5f813590506108ad81610889565b92915050565b5f5f6104c083850312156108ca576108c96107ce565b5b5f6108d78582860161085b565b9250506104a06108e98582860161089f565b9150509250929050565b6108fc816107f1565b82525050565b5f6020820190506109155f8301846108f3565b92915050565b6109248161079d565b811461092e575f5ffd5b50565b5f8135905061093f8161091b565b92915050565b5f5f6104c0838503121561095c5761095b6107ce565b5b5f61096985828601610931565b925050602061097a8582860161085b565b9150509250929050565b7f4e487b71000000000000000000000000000000000000000000000000000000005f52601160045260245ffd5b5f6109bb8261079d565b91507fffffffffffffffffffffffffffffffffffffffffffffffffffffffffffffffff82036109ed576109ec610984565b5b600182019050919050565b7f4e487b71000000000000000000000000000000000000000000000000000000005f52603260045260245ffd5b7f4e487b71000000000000000000000000000000000000000000000000000000005f52601260045260245ffd5b5f610a5c8261079d565b9150610a678361079d565b925082610a7757610a76610a25565b5b828204905092915050565b5f610a8c8261079d565b9150610a978361079d565b9250828202610aa58161079d565b91508282048414831517610abc57610abb610984565b5b5092915050565b5f82825260208201905092915050565b7f436f6e7365727661746976652043616c6c0000000000000000000000000000005f82015250565b5f610b07601183610ac3565b9150610b1282610ad3565b602082019050919050565b5f819050919050565b5f819050919050565b5f610b49610b44610b3f84610b1d565b610b26565b61079d565b9050919050565b610b5981610b2f565b82525050565b5f6040820190508181035f830152610b7681610afb565b9050610b856020830184610b50565b92915050565b5f819050919050565b5f610bae610ba9610ba484610b8b565b610b26565b61079d565b9050919050565b610bbe81610b94565b82525050565b7f436f6e73657276617469766500000000000000000000000000000000000000005f82015250565b5f610bf8600c83610ac3565b9150610c0382610bc4565b602082019050919050565b5f604082019050610c215f830184610bb5565b8181036020830152610c3281610bec565b905092915050565b7f416767726573736976652043616c6c00000000000000000000000000000000005f82015250565b5f610c6e600f83610ac3565b9150610c7982610c3a565b602082019050919050565b5f819050919050565b5f610ca7610ca2610c9d84610c84565b610b26565b61079d565b9050919050565b610cb781610c8d565b82525050565b5f6040820190508181035f830152610cd481610c62565b9050610ce36020830184610cae565b92915050565b7f41676772657373697665000000000000000000000000000000000000000000005f82015250565b5f610d1d600a83610ac3565b9150610d2882610ce9565b602082019050919050565b5f604082019050610d465f830184610bb5565b8181036020830152610d5781610d11565b905092915050565b7f50757420486564676500000000000000000000000000000000000000000000005f82015250565b5f610d93600983610ac3565b9150610d9e82610d5f565b602082019050919050565b5f819050919050565b5f610dcc610dc7610dc284610da9565b610b26565b61079d565b9050919050565b610ddc81610db2565b82525050565b5f6040820190508181035f830152610df981610d87565b9050610e086020830184610dd3565b92915050565b7f48656467650000000000000000000000000000000000000000000000000000005f82015250565b5f610e42600583610ac3565b9150610e4d82610e0e565b602082019050919050565b5f604082019050610e6b5f830184610bb5565b8181036020830152610e7c81610e36565b905092915050565b7f486f6c64000000000000000000000000000000000000000000000000000000005f82015250565b5f610eb8600483610ac3565b9150610ec382610e84565b602082019050919050565b5f604082019050610ee15f830184610bb5565b8181036020830152610ef281610eac565b90509291505056fea2646970667358221220648c6ee1a5081e7c6125992f80a18e63d68bd96795a64b979cf688ae6d9e090964736f6c634300081f0033","linkReferences":{}},"methodIdentifiers":{"addStrategy(uint256[37],uint16)":"6f2770d1","balances(address)":"27e235e3","executeStrategy(uint256,uint256[37])":"f3614cab","options(address)":"82fae9c1","owner()":"8da5cb5b","strategyCount()":"22068b44"},"storageLayout":{"storage":[{"astId":20,"contract":"src/PackedBlindOptionVaultV2.sol:PackedBlindOptionVaultV2","label":"balances","offset":0,"slot":"0","type":"t_mapping(t_address,t_uint256)"},{"astId":24,"contract":"src/PackedBlindOptionVaultV2.sol:PackedBlindOptionVaultV2","label":"options","offset":0,"slot":"1","type":"t_mapping(t_address,t_uint256)"},{"astId":36,"contract":"src/PackedBlindOptionVaultV2.sol:PackedBlindOptionVaultV2","label":"_strategies","offset":0,"slot":"2","type":"t_mapping(t_uint256,t_struct(PackedLWEEntry)31_storage)"},{"astId":38,"contract":"src/PackedBlindOptionVaultV2.sol:PackedBlindOptionVaultV2","label":"strategyCount","offset":0,"slot":"3","type":"t_uint256"}],"types":{"t_address":{"encoding":"inplace","label":"address","numberOfBytes":"20"},"t_array(t_uint256)37_storage":{"encoding":"inplace","label":"uint256[37]","numberOfBytes":"1184","base":"t_uint256"},"t_mapping(t_address,t_uint256)":{"encoding":"mapping","key":"t_address","label":"mapping(address => uint256)","numberOfBytes":"32","value":"t_uint256"},"t_mapping(t_uint256,t_struct(PackedLWEEntry)31_storage)":{"encoding":"mapping","key":"t_uint256","label":"mapping(uint256 => struct PackedBlindOptionVaultV2.PackedLWEEntry)","numberOfBytes":"32","value":"t_struct(PackedLWEEntry)31_storage"},"t_struct(PackedLWEEntry)31_storage":{"encoding":"inplace","label":"struct PackedBlindOptionVaultV2.PackedLWEEntry","numberOfBytes":"1216","members":[{"astId":28,"contract":"src/PackedBlindOptionVaultV2.sol:PackedBlindOptionVaultV2","label":"a_packed","offset":0,"slot":"0","type":"t_array(t_uint256)37_storage"},{"astId":30,"contract":"src/PackedBlindOptionVaultV2.sol:PackedBlindOptionVaultV2","label":"b","offset":0,"slot":"37","type":"t_uint16"}]},"t_uint16":{"encoding":"inplace","label":"uint16","numberOfBytes":"2"},"t_uint256":{"encoding":"inplace","label":"uint256","numberOfBytes":"32"}}},"id":0}