{"abi":[{"type":"constructor","inputs":[],"stateMutability":"nonpayable"},{"type":"function","name":"addStrategy","inputs":[{"name":"a","type":"uint256[]","internalType":"uint256[]"},{"name":"b","type":"uint256","internalType":"uint256"}],"outputs":[],"stateMutability":"nonpayable"},{"type":"function","name":"balances","inputs":[{"name":"","type":"address","internalType":"address"}],"outputs":[{"name":"","type":"uint256","internalType":"uint256"}],"stateMutability":"view"},{"type":"function","name":"executeStrategy","inputs":[{"name":"strategyId","type":"uint256","internalType":"uint256"},{"name":"s","type":"uint256[]","internalType":"uint256[]"}],"outputs":[],"stateMutability":"nonpayable"},{"type":"function","name":"holdPosition","inputs":[],"outputs":[],"stateMutability":"nonpayable"},{"type":"function","name":"options","inputs":[{"name":"","type":"address","internalType":"address"}],"outputs":[{"name":"","type":"uint256","internalType":"uint256"}],"stateMutability":"view"},{"type":"function","name":"strategies","inputs":[{"name":"","type":"uint256","internalType":"uint256"}],"outputs":[{"name":"b","type":"uint256","internalType":"uint256"}],"stateMutability":"view"},{"type":"function","name":"strategyCount","inputs":[],"outputs":[{"name":"","type":"uint256","internalType":"uint256"}],"stateMutability":"view"},{"type":"function","name":"writeAggressiveCall","inputs":[],"outputs":[],"stateMutability":"nonpayable"},{"type":"function","name":"writeConservativeCall","inputs":[],"outputs":[],"stateMutability":"nonpayable"},{"type":"function","name":"writePutHedge","inputs":[],"outputs":[],"stateMutability":"nonpayable"},{"type":"event","name":"Debug","inputs":[{"name":"b","type":"uint256","indexed":false,"internalType":"uint256"},{"name":"inner","type":"uint256","indexed":false,"internalType":"uint256"},{"name":"m_approx","type":"uint256","indexed":false,"internalType":"uint256"}],"anonymous":false},{"type":"event","name":"OptionMinted","inputs":[{"name":"strategyName","type":"string","indexed":false,"internalType":"string"},{"name":"strikePrice","type":"uint256","indexed":false,"internalType":"uint256"}],"anonymous":false},{"type":"event","name":"StrategyExecuted","inputs":[{"name":"strategyId","type":"uint256","indexed":false,"internalType":"uint256"},{"name":"action","type":"string","indexed":false,"internalType":"string"}],"anonymous":false}],"bytecode":{"object":"0x6080604052348015600e575f5ffd5b5068056bc75e2d631000005f5f3073ffffffffffffffffffffffffffffffffffffffff1673ffffffffffffffffffffffffffffffffffffffff1681526020019081526020015f20819055506113da806100665f395ff3fe608060405234801561000f575f5ffd5b506004361061009c575f3560e01c806389c7a1841161006457806389c7a18414610132578063d574ea3d1461013c578063d9f2150f1461016c578063e0e33d9814610188578063f065e703146101a45761009c565b806322068b44146100a057806327e235e3146100be57806351e5fddb146100ee57806382fae9c1146100f8578063851b6c3814610128575b5f5ffd5b6100a86101ae565b6040516100b591906109f2565b60405180910390f35b6100d860048036038101906100d39190610a76565b6101b4565b6040516100e591906109f2565b60405180910390f35b6100f66101c8565b005b610112600480360381019061010d9190610a76565b61023a565b60405161011f91906109f2565b60405180910390f35b61013061024f565b005b61013a6102c1565b005b61015660048036038101906101519190610acb565b610333565b60405161016391906109f2565b60405180910390f35b61018660048036038101906101819190610c46565b61034e565b005b6101a2600480360381019061019d9190610cf9565b6103ff565b005b6101ac61093b565b005b60035481565b5f602052805f5260405f205f915090505481565b7f12f66f39abdc239dac69e0b394cf29e0ecdab51a9bcc16fe7081bc866f9ea304610bb86040516101f99190610df2565b60405180910390a17f5d4d8e03c0ab9871e240e64a04775b5099aac229ce4929d239bf7e9e2f638fe15f6040516102309190610ea1565b60405180910390a1565b6001602052805f5260405f205f915090505481565b7f12f66f39abdc239dac69e0b394cf29e0ecdab51a9bcc16fe7081bc866f9ea3046109606040516102809190610f50565b60405180910390a17f5d4d8e03c0ab9871e240e64a04775b5099aac229ce4929d239bf7e9e2f638fe15f6040516102b79190610fc6565b60405180910390a1565b7f12f66f39abdc239dac69e0b394cf29e0ecdab51a9bcc16fe7081bc866f9ea304610a286040516102f29190611075565b60405180910390a17f5d4d8e03c0ab9871e240e64a04775b5099aac229ce4929d239bf7e9e2f638fe15f60405161032991906110eb565b60405180910390a1565b6002602052805f5260405f205f915090508060010154905081565b610300825114610393576040517f08c379a000000000000000000000000000000000000000000000000000000000815260040161038a90611161565b60405180910390fd5b5f60035f8154809291906103a6906111ac565b91905055905060405180604001604052808481526020018381525060025f8381526020019081526020015f205f820151815f0190805190602001906103ec929190610974565b5060208201518160010155905050505050565b6103008282905014610446576040517f08c379a000000000000000000000000000000000000000000000000000000000815260040161043d9061123d565b60405180910390fd5b5f60025f8581526020019081526020015f206040518060400160405290815f82018054806020026020016040519081016040528092919081815260200182805480156104af57602002820191905f5260205f20905b81548152602001906001019080831161049b575b5050505050815260200160018201548152505090505f5f61100090505f836020015190506020845101865f5f5b6103008110156107095782358451028201915060208301356020850151028201915060408301356040850151028201915060608301356060850151028201915060808301356080850151028201915060a083013560a0850151028201915060c083013560c0850151028201915060e083013560e08501510282019150610100830135610100850151028201915061012083013561012085015102820191506101408301356101408501510282019150610160830135610160850151028201915061018083013561018085015102820191506101a08301356101a085015102820191506101c08301356101c085015102820191506101e08301356101e08501510282019150610200830135610200850151028201915061022083013561022085015102820191506102408301356102408501510282019150610260830135610260850151028201915061028083013561028085015102820191506102a08301356102a085015102820191506102c08301356102c085015102820191506102e08301356102e08501510282019150610300830135610300850151028201915061032083013561032085015102820191506103408301356103408501510282019150610360830135610360850151028201915061038083013561038085015102820191506103a08301356103a085015102820191506103c08301356103c085015102820191506103e08301356103e0850151028201915061040084019350610400830192506020810190506104dc565b610fff82169150610fff8287870103169650505050507f426d9cc5b333c34d51d812de39be44790fc9815945379bd5bed56338e9dc165c815f856040516107529392919061125b565b60405180910390a1600461100061076991906112bd565b8310156107d0573073ffffffffffffffffffffffffffffffffffffffff166351e5fddb6040518163ffffffff1660e01b81526004015f604051808303815f87803b1580156107b5575f5ffd5b505af11580156107c7573d5f5f3e3d5ffd5b50505050610932565b600461100060026107e191906112ed565b6107eb91906112bd565b831015610852573073ffffffffffffffffffffffffffffffffffffffff166389c7a1846040518163ffffffff1660e01b81526004015f604051808303815f87803b158015610837575f5ffd5b505af1158015610849573d5f5f3e3d5ffd5b50505050610931565b6004611000600361086391906112ed565b61086d91906112bd565b8310156108d4573073ffffffffffffffffffffffffffffffffffffffff1663851b6c386040518163ffffffff1660e01b81526004015f604051808303815f87803b1580156108b9575f5ffd5b505af11580156108cb573d5f5f3e3d5ffd5b50505050610930565b3073ffffffffffffffffffffffffffffffffffffffff1663f065e7036040518163ffffffff1660e01b81526004015f604051808303815f87803b158015610919575f5ffd5b505af115801561092b573d5f5f3e3d5ffd5b505050505b5b5b50505050505050565b7f5d4d8e03c0ab9871e240e64a04775b5099aac229ce4929d239bf7e9e2f638fe15f60405161096a9190611378565b60405180910390a1565b828054828255905f5260205f209081019282156109ae579160200282015b828111156109ad578251825591602001919060010190610992565b5b5090506109bb91906109bf565b5090565b5b808211156109d6575f815f9055506001016109c0565b5090565b5f819050919050565b6109ec816109da565b82525050565b5f602082019050610a055f8301846109e3565b92915050565b5f604051905090565b5f5ffd5b5f5ffd5b5f73ffffffffffffffffffffffffffffffffffffffff82169050919050565b5f610a4582610a1c565b9050919050565b610a5581610a3b565b8114610a5f575f5ffd5b50565b5f81359050610a7081610a4c565b92915050565b5f60208284031215610a8b57610a8a610a14565b5b5f610a9884828501610a62565b91505092915050565b610aaa816109da565b8114610ab4575f5ffd5b50565b5f81359050610ac581610aa1565b92915050565b5f60208284031215610ae057610adf610a14565b5b5f610aed84828501610ab7565b91505092915050565b5f5ffd5b5f601f19601f8301169050919050565b7f4e487b71000000000000000000000000000000000000000000000000000000005f52604160045260245ffd5b610b4082610afa565b810181811067ffffffffffffffff82111715610b5f57610b5e610b0a565b5b80604052505050565b5f610b71610a0b565b9050610b7d8282610b37565b919050565b5f67ffffffffffffffff821115610b9c57610b9b610b0a565b5b602082029050602081019050919050565b5f5ffd5b5f610bc3610bbe84610b82565b610b68565b90508083825260208201905060208402830185811115610be657610be5610bad565b5b835b81811015610c0f5780610bfb8882610ab7565b845260208401935050602081019050610be8565b5050509392505050565b5f82601f830112610c2d57610c2c610af6565b5b8135610c3d848260208601610bb1565b91505092915050565b5f5f60408385031215610c5c57610c5b610a14565b5b5f83013567ffffffffffffffff811115610c7957610c78610a18565b5b610c8585828601610c19565b9250506020610c9685828601610ab7565b9150509250929050565b5f5ffd5b5f5f83601f840112610cb957610cb8610af6565b5b8235905067ffffffffffffffff811115610cd657610cd5610ca0565b5b602083019150836020820283011115610cf257610cf1610bad565b5b9250929050565b5f5f5f60408486031215610d1057610d0f610a14565b5b5f610d1d86828701610ab7565b935050602084013567ffffffffffffffff811115610d3e57610d3d610a18565b5b610d4a86828701610ca4565b92509250509250925092565b5f82825260208201905092915050565b7f436f6e7365727661746976652043616c6c0000000000000000000000000000005f82015250565b5f610d9a601183610d56565b9150610da582610d66565b602082019050919050565b5f819050919050565b5f819050919050565b5f610ddc610dd7610dd284610db0565b610db9565b6109da565b9050919050565b610dec81610dc2565b82525050565b5f6040820190508181035f830152610e0981610d8e565b9050610e186020830184610de3565b92915050565b5f819050919050565b5f610e41610e3c610e3784610e1e565b610db9565b6109da565b9050919050565b610e5181610e27565b82525050565b7f436f6e73657276617469766500000000000000000000000000000000000000005f82015250565b5f610e8b600c83610d56565b9150610e9682610e57565b602082019050919050565b5f604082019050610eb45f830184610e48565b8181036020830152610ec581610e7f565b905092915050565b7f50757420486564676500000000000000000000000000000000000000000000005f82015250565b5f610f01600983610d56565b9150610f0c82610ecd565b602082019050919050565b5f819050919050565b5f610f3a610f35610f3084610f17565b610db9565b6109da565b9050919050565b610f4a81610f20565b82525050565b5f6040820190508181035f830152610f6781610ef5565b9050610f766020830184610f41565b92915050565b7f48656467650000000000000000000000000000000000000000000000000000005f82015250565b5f610fb0600583610d56565b9150610fbb82610f7c565b602082019050919050565b5f604082019050610fd95f830184610e48565b8181036020830152610fea81610fa4565b905092915050565b7f416767726573736976652043616c6c00000000000000000000000000000000005f82015250565b5f611026600f83610d56565b915061103182610ff2565b602082019050919050565b5f819050919050565b5f61105f61105a6110558461103c565b610db9565b6109da565b9050919050565b61106f81611045565b82525050565b5f6040820190508181035f83015261108c8161101a565b905061109b6020830184611066565b92915050565b7f41676772657373697665000000000000000000000000000000000000000000005f82015250565b5f6110d5600a83610d56565b91506110e0826110a1565b602082019050919050565b5f6040820190506110fe5f830184610e48565b818103602083015261110f816110c9565b905092915050565b7f496e76616c69642064696d656e73696f6e0000000000000000000000000000005f82015250565b5f61114b601183610d56565b915061115682611117565b602082019050919050565b5f6020820190508181035f8301526111788161113f565b9050919050565b7f4e487b71000000000000000000000000000000000000000000000000000000005f52601160045260245ffd5b5f6111b6826109da565b91507fffffffffffffffffffffffffffffffffffffffffffffffffffffffffffffffff82036111e8576111e761117f565b5b600182019050919050565b7f496e76616c6964207769746e6573732064696d656e73696f6e000000000000005f82015250565b5f611227601983610d56565b9150611232826111f3565b602082019050919050565b5f6020820190508181035f8301526112548161121b565b9050919050565b5f60608201905061126e5f8301866109e3565b61127b6020830185610e48565b61128860408301846109e3565b949350505050565b7f4e487b71000000000000000000000000000000000000000000000000000000005f52601260045260245ffd5b5f6112c7826109da565b91506112d2836109da565b9250826112e2576112e1611290565b5b828204905092915050565b5f6112f7826109da565b9150611302836109da565b9250828202611310816109da565b915082820484148315176113275761132661117f565b5b5092915050565b7f486f6c64000000000000000000000000000000000000000000000000000000005f82015250565b5f611362600483610d56565b915061136d8261132e565b602082019050919050565b5f60408201905061138b5f830184610e48565b818103602083015261139c81611356565b90509291505056fea2646970667358221220f2711e8edca7c7d5579f6a7819938b84fc8c77814eba96b67ae6e3c3ced1facf64736f6c634300081f0033","linkReferences":{}},"methodIdentifiers":{"addStrategy(uint256[],uint256)":"d9f2150f","balances(address)":"27e235e3","executeStrategy(uint256,uint256[])":"e0e33d98","holdPosition()":"f065e703","options(address)":"82fae9c1","strategies(uint256)":"d574ea3d","strategyCount()":"22068b44","writeAggressiveCall()":"89c7a184","writeConservativeCall()":"51e5fddb","writePutHedge()":"851b6c38"},"id":19}